:020000040800F2
:10000000D00A0020750100087D1100086910000861
:1000100000000000000000000000000000000000E0
:100020000000000000000000000000002114000893
:10003000000000000000000011120008B1160008C6
:10004000A5010008A5010008A5010008A5010008F8
:10005000A5010008A9090008A5010008A5010008DC
:10006000A5010008A5010008A5010008A5010008D8
:10007000A5010008A5010008A5010008A5010008C8
:10008000A5010008A501000800000000A501000866
:10009000A5010008A5010008A5010008A5010008A8
:1000A000A5010008A5010008A5010008A91700087E
:1000B000A518000800000000A501000800000000CD
:1000C00000F002F800F046F80CA030C808382418F8
:1000D0002D18A246671EAB4654465D46AC4201D180
:1000E00000F038F87E460F3E0FCCB646012633426C
:1000F00000D0FB1AA246AB4633431847A0A7000026
:10010000C0A70000103A02D378C878C1FAD85207C5
:1001100001D330C830C101D504680C6070470000BD
:100120000023002400250026103A01D378C1FBD813
:10013000520700D330C100D50B60704710B5642959
:1001400002D100F065F810BD002010BD1FB51FBD25
:1001500010B510BD00F087FA1146FFF7F7FF01F068
:100160002FFD00F09FFA03B4FFF7F2FF03BC00F08D
:10017000A7FA00000F4880F308880F480168090EAD
:100180000E4A914205D10E480E4901600E480F49B2
:1001900001600F4880470F480047FEE7FEE7FEE793
:1001A000FEE7FEE7FEE700000B480C490C4A0D4B4A
:1001B00070470000D00A0020040000001F0000006B
:1001C0001810024001000000000001400000000083
:1001D000B5160008C1000008D0040020D00A002095
:1001E000D0060020D00600200FB41CB5074B06AA8D
:1001F0007B4469460090059800F009FA00206946A2
:1002000000F018FA1CBC08BC04B0184741040000F8
:10021000F7B5002575291068009914A611D0C046BD
:10022000C046002802DA404211A608E00099096899
:100230008A0701D50FA602E0490704D50EA60125BD
:1002400001E0C046C046009F0024243704E000F0CF
:10025000F6F930313955641C0028F8D12B46324666
:100260002146009800F076F9FEBD00000000000075
:100270002D0000002B00000020000000F3B5044614
:10028000002081B020622046E168884700287DD0A8
:10029000252802D06268A16883E0454F00257F448D
:1002A0002046E16888472028064608DB312E06D222
:1002B000B81920380078002801D00543F0E7A807D6
:1002C00001D5042085430020E0610746A0612A2E65
:1002D0000AD0304601F06CFC002827D0B800001985
:1002E000303E0090866119E00298BA00121902C8E7
:1002F000916102902046E1688847012F064617D198
:10030000E06900281FDA202085431CE000980A21BC
:100310008069484300998019303888612046E16837
:100320008847064601F044FC0028EFD1012F0AD08F
:100330002E2E08D12046E168884706462020054336
:100340007F1C022FC3DBA069002803DA4042A061B2
:1003500001200543E80701D010208543002E24D05A
:1003600030464138192803D80120C0020543203601
:10037000204625603146029A1546FFF7DFFE002829
:100380000CD0012807D0ED1DE80800E00DE0C0000A
:100390000830029077E72D1D029574E762683046B9
:1003A000A1689047206A401C6CE7206AFEBD0000EF
:1003B000E7A5000001E004C0091F0429FBD28B0758
:1003C00001D50280801CC90700D002707047002947
:1003D0000BD0C30702D00270401C491E022904D36F
:1003E000830702D50280801C891EE3E70022EEE726
:1003F0000022DFE7002203098B422CD3030A8B4241
:1004000011D300239C464EE003460B433CD400220C
:1004100043088B4231D303098B421CD3030A8B421E
:1004200001D394463FE0C3098B4201D3CB01C01AEC
:10043000524183098B4201D38B01C01A52414309B7
:100440008B4201D34B01C01A524103098B4201D3A5
:100450000B01C01A5241C3088B4201D3CB00C01A12
:10046000524183088B4201D38B00C01A524143088A
:100470008B4201D34B00C01A5241411A00D20146AF
:100480005241104670475DE0CA0F00D04942031048
:1004900000D34042534000229C4603098B422DD397
:1004A000030A8B4212D3FC22890112BA030A8B423F
:1004B0000CD3890192118B4208D3890192118B428E
:1004C00004D389013AD0921100E08909C3098B4213
:1004D00001D3CB01C01A524183098B4201D38B0156
:1004E000C01A524143098B4201D34B01C01A5241F9
:1004F00003098B4201D30B01C01A5241C3088B423E
:1005000001D3CB00C01A524183088B4201D38B0028
:10051000C01A5241D9D243088B4201D34B00C01AB2
:100520005241411A00D20146634652415B101046C7
:1005300001D34042002B00D54942704763465B100F
:1005400000D3404201B50020C046C04602BD7047FE
:1005500070477047FFB504460D4681B024300090C7
:100560002168880604D51022E0699143216000E0EB
:100570000120A84201DD471B00E000270498A16983
:100580007A191018081AA0612078C00602D42046F3
:10059000C046C046002608E003986268A168805DF6
:1005A0009047206A401C761C206204988642F3DB48
:1005B0002078C0060AD52046C046C04606E06268DC
:1005C000A16830209047206A401C206238467F1E78
:1005D0000028F4DC07E000986268A168405D90475D
:1005E000206A401C206228466D1E0028F3DC20464D
:1005F000C046C0462078000602D5022005B0F0BDF6
:100600000120FBE701694A1C02610878704700B5C8
:100610008FB002910021059105490193794403911E
:10062000114604906846FFF729FE0FB000BD000098
:10063000E5FFFFFF0A681070521C0A607047014610
:100640008008081A02091018020A1018020C101863
:10065000C008820012185200891A01E0401C0A39B1
:100660000A29FBD27047754600F024F8AE46050013
:1006700069465346C008C000854618B020B5FFF74C
:1006800093FD60BC00274908B6460026C0C5C0C51A
:10069000C0C5C0C5C0C5C0C5C0C5C0C5403D490076
:1006A0008D46704710B50446C046C0462046FFF749
:1006B0005AFD10BD004870477004002070470000CC
:1006C00001491820ABBEFEE7260002000A4610B51D
:1006D0000146022000F0EAF802460449072000F033
:1006E00077FD0146024800F075FF10BD2400002090
:1006F0000C04002010B50146012000F0D7F8024696
:100700000449072000F064FD0146034800F062FF41
:1007100010BD0000240000200C040020F0B50121D1
:1007200085B0480400F076FD0121880400F072FDD8
:100730000121C80400F06EFDF220009001256846FA
:1007400005710024847103264671C471092069462D
:10075000C00600F011FB6846009604710227C771BD
:1007600069461A4800F008FB0420009068460571AD
:1007700084714671C4716946144800F0FDFA012184
:10078000084600F05FFD0021012000F04BFE012132
:10079000084600F047FE6846029504730C2646732F
:1007A000857302A800F030F9684602970473467317
:1007B000857302A800F028F9052168460174447485
:1007C000857404A800F0DCFC05B0F0BD000400480E
:1007D00070B580211D48FFF709FE0521012000F0BA
:1007E0001FFB02461A49012000F072FB194C2070D1
:1007F00017482178943000F0CFFE0028F8D14B251F
:10080000ED00284600F0B8F811482178943000F047
:10081000C3FE0028F8D1284600F0AEF80E48017853
:100820000129FCD1002101700849487A002804D030
:10083000012806D00A2807D002E08879072801D0CD
:10084000032070BD002070BD022070BD7801002023
:1008500078020020200000201300002070B5B2B004
:10086000C8216846FFF7C4FD00F0B8F96422694664
:100870000C4800F061FAC82000F08AF800F076F920
:100880000020094A6B460124054641005E5A012EAC
:1008900005D05552401C6428F7DB32B070BD54526D
:1008A000F8E70000007C0008B00000200FB410B58D
:1008B0006846002103AA007A064B04E014785C54D1
:1008C000491CC9B2121D8142F8D310BC08BC04B047
:1008D00018470000240000207CB5044680212248EF
:1008E000FFF784FD01200025019023462A460C21B4
:1008F0000095052000F094FA02461C49012000F002
:10090000E7FA1B4C207019482178943000F044FE1F
:100910000028F8D14B26F600304600F02DF8134899
:100920002178943000F038FE0028F8D1304600F0ED
:1009300023F8104801780129FCD105700A49487A4A
:10094000002806D0012808D00C2809D00B2809D08F
:1009500002E08879072801D004207CBD00207CBDFE
:1009600002207CBD03207CBD78010020780200209D
:10097000200000201300002000210A22504304E040
:100980000222521C642AFCDB491C8842F8DC7047B6
:1009900000210A22504304E00222521C642AFCDB9C
:1009A000491C8842F8DC704710B5012000F022F89D
:1009B0000124002806D00948047009480470012069
:1009C00000F012F8022000F015F8002804D00548C5
:1009D0000470022000F008F810BD00001F00002085
:1009E000170000201E0000200149486170470000E8
:1009F00000040140034A0146526900200A4200D027
:100A0000012070470004014010B58379184902683D
:100A1000002B26D00B6893430B604A6803689A4307
:100A20004A600279521813680468234313608A6885
:100A300003689A438A60CA6803689A43CA60427925
:100A4000102A05D051180A68006802430A6010BDD8
:100A50008A6803681A438A60CA6800680243CA60E9
:100A600010BD0079401801689143016010BD00007D
:100A70000004014070B580211F48FFF7B7FC0D212D
:100A8000012000F0CDF902461C49012000F020FAB7
:100A90001B4C207019482178943000F07DFD00280F
:100AA000F8D14B25ED002846FFF766FF1348217863
:100AB000943000F071FD0028F8D12846FFF75CFF64
:100AC000104801780129FCD1002101700A49487AB7
:100AD000002804D0012809D011280AD002E0887922
:100AE000072804D0084904200881032070BD002095
:100AF00070BD022070BD0000780100207802002047
:100B0000200000201300002020040048F0B50B272F
:100B100006463F04384600F071F804280FD1084C0F
:100B2000206902252843206166612069402108432D
:100B30002061384600F062F82169A9432161F0BDC7
:100B40000020024008490420CA68D20701D00120D1
:100B50007047CA68D20601D502207047C9684907A4
:100B6000FBD50320704700000020024002480169C5
:100B70008022114301617047002002400449102285
:100B80000028086801D0104300E0904308607047D7
:100B900000200240F0B50B2706463F040D463846BC
:100BA00000F02CF804280CD1064C206901210843E0
:100BB00020613580384600F021F821694908490054
:100BC0002161F0BD00200240034A11684908490034
:100BD0000143116070470000002002400448016991
:100BE000090603D50349416003494160704700008D
:100BF0000020024023016745AB89EFCD00B50346D5
:100C0000FFF7A0FF02E0FFF79DFF5B1E012803D066
:100C1000002B00D1052000BD002BF4D1FAE7000025
:100C200010B5044680211D48FFF7E0FB0221224653
:100C3000084600F0F5F802461949012000F048F98D
:100C4000184C207016482178943000F0A5FC00283C
:100C5000F8D14B20C000FFF78FFE1348017801291F
:100C6000FCD1002101700D49487A002808D00128E4
:100C70000AD006280BD007280BD015280BD002E08D
:100C80008879072801D0052010BD002010BD022062
:100C900010BD032010BD042010BD0000780100200D
:100CA00078020020200000201300002070B5802171
:100CB0001D48FFF79BFB0121084600F0B1F80246F2
:100CC0001A49012000F004F9194C207017482178C6
:100CD000943000F061FC0028F8D14B25ED00284647
:100CE000FFF74AFE11482178943000F055FC0028A7
:100CF000F8D12846FFF740FE0E4801780129FCD1C3
:100D0000002101700849487A002807D0012804D042
:100D1000022802D0032800D0042070BD887907285B
:100D2000FAD1002070BD0000780100207802002078
:100D3000200000201300002030B50346002004E00E
:100D400045001C88401C4C539B1C9042F8D330BD7E
:100D5000F8B50646002417460D46042007E029880A
:100D60003046FFF717FF641CAD1CA4B2B61CBC4292
:100D700001D20428F3D0F8BDF0B5002201242346A7
:100D80000D6893401D409D422AD10D79012D01D05F
:100D9000022D12D1876855000326AE40B743876005
:100DA0004E79AE4085682E43866085889D43858058
:100DB00085888B7993401D43858006685500032301
:100DC000AB409E4306600E790768AE403E43066026
:100DD000C6689E43C660CB79AB40C5682B43C360F1
:100DE000521C102ACBD3F0BD4B07DB0E9A40C9082A
:100DF00010B589000818016A0F249C40A1430162C4
:100E0000016A1143016210BD10B514464A1C93B229
:100E1000421C92B200F057F9204600F09BF910BD39
:100E20000FB410B56846002103AA007A064B04E00F
:100E300014785C54491CC9B2121D8142F8D310BC0D
:100E400008BC04B0184700007802002010B58021CB
:100E50001A48FFF7CBFA1D210220FFF7E1FF0246F7
:100E60001749012000F034F8164C207014482178FE
:100E7000943000F091FB0028F8D14B20C000FFF720
:100E80007BFD114801780129FCD1002101700B483C
:100E9000417A002902D001290DD002E08179072989
:100EA00001D0042010BD817AC07A090208180749D0
:100EB0000880002010BD012010BD00007801002036
:100EC0007802002020000020130000201A000020DB
:100ED000F0B51B4C8C46EF2525700121234661702F
:100EE00014331D705970FF25A570E570257165716B
:100EF0009D70DD701D715D710026A071951C98714B
:100F0000290AE1712572D9711D7261463746E16087
:100F100006E08C5DE519EFB29D19761C6C72F6B295
:100F20009642F6D3C0198018801C0549040A0C7437
:100F3000487499184C7288720B32D0B2F0BD000020
:100F4000F8020020FFB583B00398019081E080286B
:100F500033D20D2804D0202809D9203880B207E0E8
:100F6000019803900498103080B2049021E0002092
:100F700000250001009000980024461904984719A4
:100F80003748815D8020E040014206D00398B9B225
:100F9000001980B2059AFFF737FF641CE4B2082CF1
:100FA000EED36D1CEDB2102DE5D30398083080B25E
:100FB00003900698401C06904BE000242046222116
:100FC00048432849069A0B5C1278934236D1401860
:100FD000029041780698407881422FD100260299EC
:100FE00070000F180498002580190090B9788020AF
:100FF000E840014207D00098059A81B20398401951
:1010000080B2FFF701FF6D1CEDB2082DEED3002575
:10101000F9788020E840014208D00098059A81B212
:1010200003984019083080B2FFF7EEFE6D1CEDB258
:10103000082DEDD3761CF6B2102ED0D3641CA4B2CA
:10104000172CBBD30698801C06900398103080B2F2
:10105000039006980078002800D078E707B0F0BD2C
:10106000689F000859A50008FEE770B506467F2373
:1010700000211A46084600F026F82C2000F04EF811
:1010800000240025304600F065F86D1C802DF9D352
:10109000641C802CF5D370BD00B5112000F03EF823
:1010A0007820FFF775FC362000F038F8C82000F0F3
:1010B00043F83A2000F032F8052000F03DF82920EE
:1010C00000F02CF800BDF0B507461C4615460E464C
:1010D0002A2000F023F8002000F02EF8BF1CF8B200
:1010E00000F02AF8002000F027F8AD1CE8B200F06C
:1010F00023F82B2000F012F8002000F01DF8F61C59
:10110000F0B200F019F8002000F016F8E41CE0B28C
:1011100000F012F82C2000F001F8F0BD10B50549E0
:1011200010240C8140220A8100F062F90920C006D7
:10113000846110BD2000004830B5054910240C81A1
:1011400009254021ED06A96100F052F9AC6130BDDE
:101150002000004870B5044607481025058140204E
:101160000926F606B061200A00F042F9E0B200F06C
:101170003FF9B56170BD00002000004870470000D5
:1011800030B5837801210278002B15D094080E4BDE
:10119000A400E41823689207D50EFF22AA409343C7
:1011A00042789207120EAA401A4322600078C006C5
:1011B000C00E8140054804E0D006C00E81400348BF
:1011C0008030016030BD000000E400E000E100E09C
:1011D00070B50D4DAA260D4B2E701E70687058709C
:1011E0000024901C060AAE70E8709E70D87069608A
:1011F00004E0085D1D19641C2871E4B29442F8D320
:10120000121DD0B270BD0000280000200C04002088
:1012100070470000044A0029516901D0014300E0F1
:10122000814351617047000000100240044A0029C8
:10123000D16901D0014300E08143D16170470000D2
:1012400000100240044A0029916901D0014300E0E6
:10125000814391617047000000100240F8B5564D7F
:101260000446686800210C22544E104005D0042822
:1012700003D0082803D00C281AD026601AE0696829
:10128000686803228902D2030F0F1040BF1C002898
:101290000AD0E86A0107090F3046491CFFF7AAF88F
:1012A00078430146216005E0454839464143F9E766
:1012B000444820606868444F0006000F3B5C20688B
:1012C0000246DA4062606B685B055B0FFB5CDA40EC
:1012D000A2602B6BDB0501D43C4B05E06B685B0423
:1012E00001D4530800E09308E3602B6B5F06384B92
:1012F00003D4374F1237276100E023612F6BFF06BD
:1013000001D4666100E060612F6BBF070ED02F6BC8
:10131000BF07BF0F012F0BD02F6BBF07BF0F022FCF
:1013200008D02F6BFF43BF0706D006E0A26104E0A0
:10133000A06102E0A36100E0A6612F6BBF03BF0FB5
:101340000FD02F6BBF03BF0F012F0CD02F6BBF032C
:10135000BF0F022F09D02F6BBF03BF0F032F06D083
:1013600006E0E26104E0E06102E0E36100E0E661E2
:101370002F6B3F03BF0F0FD02A6B1203920F012A6E
:101380000CD0286B0003800F022809D0286B0003C3
:10139000800F032806D006E0226204E0206202E00B
:1013A000236200E02662286B000602D405486062D2
:1013B000F8BD6162F8BD00000010024000127A0022
:1013C00000093D00006CDC0200000020809FD50079
:1013D0000080000005490028086802D0012210435F
:1013E00001E0400840000860704700000010024023
:1013F00070B5092408218023E406084D2022060642
:1014000001D5A36100E02B81A2612A814006491E1B
:10141000000E0906090EF2D170BD00002000004840
:10142000704700008A07130F10B50F229A408C08EE
:101430000549A40061188C6894438C608A689840C0
:1014400002438A6010BD00000000014038B50C4620
:10145000054680212148FEF7C9FF230A2A460621B6
:1014600004200094FFF7DCFC02461D490120FFF731
:101470002FFD1C4C20701A482178943000F08CF815
:101480000028F8D14B25ED002846FFF775FA1448DF
:101490002178943000F080F80028F8D12846FFF732
:1014A0006BFA114801780129FCD1002101700B4928
:1014B000487A002806D0012808D00B2809D018281F
:1014C00009D002E08879072801D0042038BD002027
:1014D00038BD022038BD032038BD0000780100204F
:1014E000780200202000002013000020FEB50D46E9
:1014F0000646144680212448FEF778FF200A019012
:101500002B0A32460421009502940620FFF788FC3E
:1015100002461E490120FFF7DBFC1D4C20701B48D2
:101520002178943000F038F80028F8D14B25ED00F0
:101530002846FFF721FA15482178943000F02CF85E
:101540000028F8D12846FFF717FA12480178012938
:10155000FCD1002101700C48417A002904D00129F6
:101560000ED009290ED002E08179072901D003208D
:10157000FEBD817AC07A0902081860800020FEBD95
:101580000120FEBD0220FEBD78010020780200206F
:10159000200000201300002010B500F0BDF94B2002
:1015A000C000FFF7E9F9002010BD000010B50849A0
:1015B000AA220A7002224A7000228A700423CB7089
:1015C0000A7148710621024800F054F910BD00006C
:1015D0000C04002010B500F04DF9C820FFF7CCF93D
:1015E000002010BD1CB50021224801910091026825
:1015F00001231B041A4302605B00052212030468E6
:101600001C400094019C641C0194009C002C02D19D
:10161000019C9442F3D10268920328D501210091E4
:10162000154A11211160416841604168416041687B
:101630007F22D20391434160416811221204114379
:1016400041600168012212061143016001688901AD
:10165000FCD5416889088900416041680222114334
:10166000416041680907890F0229FAD11CBD009128
:101670001CBD0000001002400020024070B505466D
:101680007F2300211A460846FFF71DFD2C20FFF797
:1016900045FD00240126B6036100685C49194978BC
:1016A00000020843FFF756FD641CB442F4DB70BD32
:1016B0007047000010B51448016801221143016011
:1016C0004168124A114041600168114A11400160AD
:1016D0000168012292049143016041683F22120493
:1016E00091434160C16A09090901C162016BFF228E
:1016F000543291430163416B490849004163002121
:101700008160FFF76FFF10BD001002400CB8FFF8BA
:10171000FFFFF6FE30B50A4C01232381FF20F53090
:10172000FFF72AF90925ED06AB617D20C000FFF720
:1017300023F92381FA20FFF71FF9AB6130BD0000C8
:101740002000004800B5054801230381FF20F53043
:10175000FFF712F90920C006836100BD2000004890
:1017600000B5054801230381FA20FFF705F9092098
:10177000C006836100BD00002000004830B5094C60
:1017800001232381FA20FFF7F7F80925ED06AB6165
:101790007D20C000FFF7F0F82381FA20FFF7ECF876
:1017A000AB6130BD2000004870B5154E154D314677
:1017B000284600F0DFF8144C00280FD031462846A8
:1017C00000F0C2F8284600F05BF921780F4A521861
:1017D000491C2170107020780D4908700D4E284664
:1017E000314600F0C7F8002808D03146284600F0FE
:1017F000ABF80949012008700020207070BD00007E
:10180000050105000038014010000020F80100200B
:101810001C00002004010400110000200F48017882
:10182000012912D1002101700D4B01215A7818466F
:101830000079012A01D1012808D00A4A022808D0DB
:10184000032802D1084801701170704707480170E1
:1018500070471170064958790870704711000020D0
:10186000F8010020160000201700002015000020BD
:1018700014000020F8B50F4605460024084E0BE082
:10188000295D641CE4B2304600F0FEF88021304649
:1018900000F069F80028F9D0BC42F1D3F8BD00008F
:1018A0000038014070B5154E154D3146284600F000
:1018B00061F8144C00280FD03146284600F044F857
:1018C000284600F0DDF821780F4A5218491C217093
:1018D000107020780D4908700D4E2846314600F0F2
:1018E00049F8002808D03146284600F02DF809496B
:1018F000012008700020207070BD00000501050067
:101900000044004012000020780100201D0000204B
:101910000401040013000020F8B50F46054600241A
:10192000084E0BE0295D641CE4B2304600F0ACF8D0
:101930008021304600F017F80028F9D0BC42F1D3DE
:10194000F8BD0000004400400A0C012191400162F2
:1019500070470029016802D00122114301E04908C3
:101960004900016070470246D26900200A4200D057
:101970000120704730B50A04130E012214460025D9
:101980008C40012B0ED0022B0ED08368090C234013
:10199000C0698A401040002B02D0002800D00125E9
:1019A000284630BD0368F1E74368EFE710B50B0444
:1019B0001C0E01238B40022C02D0032C02D002E02B
:1019C000001D00E008300168002A01D0194300E042
:1019D0009943016010BD000030B5044600688BB02B
:1019E0000D464008400020606068032109038843D9
:1019F000A9680143616020681C49EA680840696879
:101A000011432A69024311432160A068032109029E
:101A1000884369690143A1606846FFF71FFC1448C9
:101A2000844201D106980AE01248844201D1079805
:101A300005E01148844201D1089800E0029821682D
:101A40000904296800D54000FEF7D4FC2A68520832
:101A50008A4200D8401C2168090404D50107074ABE
:101A6000490F10400843A0810BB030BDF3E9FFFFE0
:101A7000003801400044004000480040F0FF0000F2
:101A8000808CC005C00D7047C905C90D0185704720
:101A9000F0B58FB00024E120400208940390049434
:101AA0000C25401001210E940594069407954E04D0
:101AB00009900A940B940C940D953046FFF7AAFBFD
:101AC00001213046FFF7B2FB01218803FFF7BAFB83
:101AD00009210122C806FFF787F9092001220A21FE
:101AE000C006FFF781F9E8010090022669460E71F1
:101AF00003274F718C710920CC71C006FFF73CF9A8
:101B000003A92748FFF768FF092001220221C00628
:101B1000FFF76AF9092001220321C006FFF764F9E3
:101B2000694600950E714F718C710920CC71C00609
:101B3000FFF722F91B4D09A92846FFF74DFF1A4C64
:101B4000012221461648FFF731FF184E0122314687
:101B50001348FFF72BFF012221462846FFF726FFF7
:101B6000012231462846FFF721FF1B2069460872F3
:101B700001244C728C7202A8FFF702FB1C206946FC
:101B800008724C728C7202A8FFF7FAFA012104481D
:101B9000FFF7DFFE01212846FFF7DBFE0FB0F0BDA7
:101BA0000038014000440040050105000401040024
:101BB00030380A2801D20120704700207047000009
:101BC0000025FEF7ABFDFFF767FAFFF761FFB24EA6
:101BD0003046FFF74AFAB148FFF750FDFFF7C0FD66
:101BE000FFF734F90028FBD1AD4CE088A080A28833
:101BF000ACA1AF48FEF7F8FAAD4B324650210F20AA
:101C0000FFF7A0F90120FFF7E5FB0120FEF7DCFF5D
:101C10000120FEF7B3FFFEF721FEA64904208861EC
:101C20001F26A54FF602FFF7F9FD387801280ED0E0
:101C3000607801280BD0A148017801297ED0A178D5
:101C40000129FBD0FFF732F8002878D006E1002008
:101C5000387060709148FFF711FD99A3324650210A
:101C60000F20FFF76FF9FFF721F80028FBD10120C3
:101C7000FEF7D6FF0028EDD18848FFF7FFFC94A3BC
:101C8000324650210F20FFF75DF9FFF70FF80028CB
:101C9000FBD18248FFF7F2FC91A3324650210F207E
:101CA000FFF750F90220FEF7BBFF0028E4D17B4884
:101CB000FFF7E4FC8EA3324650210F20FFF742F9D4
:101CC000FEF786FD002805D06D1CEDB2042DF7D17E
:101CD0000025BFE77148FFF7D1FC89A332465021A8
:101CE0000F20FFF72FF9724D002080354100695A0F
:101CF00000290CD0401C6428F8DBA1880120FFF7E4
:101D0000A5FB002805D0FFF71DFD0025A6E0A0805B
:101D1000F3E7A188012049006852FEF75FFF7C4D80
:101D20002846FEF7F3FE6420FEF732FE6049642287
:101D300080312846FFF70CF8642001E015E076E0DA
:101D4000FEF726FEFEF712FF5448FFF797FC71A33B
:101D5000324650210F20FFF7F5F8FFF70FFDA0885E
:101D6000C1B20020FEF7B2FCCFE700210170A170E4
:101D7000E07801282CD02078FEF7AEFD0028FAD1BB
:101D80002078002142004A4880308152FEF726FF29
:101D90005F48FEF7BBFE6420FEF7FAFD444964226B
:101DA00080315B48FEF7D4FF6420FEF7F1FDFEF7BB
:101DB000DDFE3A48FFF762FC5AA3324650210F205D
:101DC000FFF7C0F80020FEF795FCFFF7A3FC45E005
:101DD0000020E070FEF74EFE0028FBD12F48FFF7F1
:101DE0004DFC54A3324650210F20FFF7ABF8FFF70C
:101DF00091FC0021A1802E4A084680324300401CFD
:101E0000D1526428FADBFEF7E9FE4148FEF77EFE78
:101E10006420FEF7BDFD2649642280313C48FEF770
:101E200097FF6420FEF7B4FDFEF7A0FE16E0012048
:101E3000FEF7F6FE002811D1424A00210120FFF7EB
:101E400055FB0028154811D0FFF718FC3EA3324679
:101E500050210F20FFF776F8FFF774FC7D20C000BB
:101E6000FEF796FD0D48FFF709FCDCE6FFF706FCE0
:101E7000384839A102880E48FEF7B6F90C4B3246B5
:101E800050210F20FFF75EF8FFF76AFC3148007819
:101E9000FFF78CFBE2E7000008420000681F000823
:101EA00014000020474554204E554D202564210044
:101EB00030000020000400481E0000201F00002009
:101EC00050726573732066696E6765722100000049
:101ED000507265737320616761696E2100000000B4
:101EE000536176655F496D616765202100000000E0
:101EF000536176655F636861726275666621000092
:101F0000436F6D62696E655F46696E676572210039
:101F1000007C000846696E67657220496E204F4B51
:101F20002100000044656C617465204F6E652021BE
:101F30000000000044656C61746520416C6C2021D8
:101F4000000000009E03000043616E60742046693B
:101F50006E6421002200002046696E64206D616E6F
:101F60002025642100000000FFFFFFFFFFFFFFFFAF
:101F7000FFFFFFFFFFFFFFFFFFFFFFFFFFFFFFFF71
:101F8000FFFFFFFFFFFFFFFFFFFFFFFFFFFFFFFF61
:101F9000FFFFFFFFFFFFFFFFFFFFFFFFFFFFFF9EB2
:101FA000FFFFFFFFFF9EFFFFFFFFFFFFFFFFFFFFA2
:101FB000FFFFFFFFFFFFFFFFFFFFFFFFFFFFFFFF31
:101FC000FFFFFF9EFFFFFFFFFFFFFEDBFF9EFFFF08
:101FD000FFFFFFFFFFFFFFFFFFFFFFFFFFFFFFFF11
:101FE000FFFFFFFFFFFFFD34FFFFFFFFFFFFFFFFCE
:101FF000FFFFFFFFFFFFFFFFFFFFFFFFFFFFFFFFF1
:10200000FFFFFFFFFFFFFFFFFFFFFFFFFFFFFFFFE0
:10201000FF9EFFFFFFFFFFFFFFFFFFFFFFFFFFFF31
:10202000FFFFFFFFFFFFFFFFFFFFFFFFFFFFFFFFC0
:10203000FFFFFFFFFFFFFFFFFFFFFFFFFFFFFFFFB0
:10204000FFFFFFFFFFFFFFFFFFFFFFFFFFFFFFFFA0
:10205000FFFFFFFFFFFFFFFFFFFFFFFFFFFFFFFF90
:10206000FFFFFFFFFFFFFFFFFFFFFFFFFFFFFFFF80
:10207000FFFFFFFFFFFFFFFFFFFFFFFFFFFFFFFF70
:10208000FFFFFFFFFFFFFFFFFFFFFFFFFFFFFFFF60
:10209000FFFFFFFFFFFFFFFFFFFFFFFFFFFFF80056
:1020A000FFFFFFFFFD34FB8EFFFFFFFFFFFFFFFF82
:1020B000FEDBFFFFFFFFFFFFFFFFFFFFFFFFFFFF55
:1020C000FFFFF800FFFFFFFFFFFFFE18FA08FFFF0A
:1020D000FFFFFFFFFFFFFFFFFFFFFFFFFFFFFFFF10
:1020E000FFFFFFFFFFFFF800FE18FFFFFFFFFFFFEE
:1020F000FFFFFFFFFFFFFFFFFFFFFFFFFFFFFFFFF0
:10210000FFFFFFFFFFFFFFFFFFFFFFFFFFFFFFFFDF
:10211000FA08FE18FFFFFFFFFFFFFFFFFFFFFFFFB3
:10212000FFFFFFFFFFFFFFFFFFFFFFFFFF9EFA081C
:10213000FFFFFFFFFFFFFFFFFFFFFFFFFFFFFFFFAF
:10214000FFFFFFFFFFFFFFFFFFFFFFFFFFFFFFFF9F
:10215000FFFFFFFFFFFFFFFFFFFFFFFFFFFFFFFF8F
:10216000FFFFFFFFFFFFFFFFFFFFFFFFFFFFFFFF7F
:10217000FFFFFFFFFFFFFFFFFFFFFFFFFFFFFFFF6F
:10218000FFFFFFFFFFFFFFFFFFFFFFFFFFFFFFFF5F
:10219000FFFFFFFFFFFFFFFFFFFFFFFFFFFFF80055
:1021A000FFFFFFFFFFFFFA08FFFFFFFFFFFFFE1823
:1021B000F800FFFFFFFFFFFFFFFFFFFFFFFFFFFF35
:1021C000FD34F800FF9EFFFFFFFFFFFFFD34F861C5
:1021D000FFFFFFFFFFFFFFFFFFFFFFFFFFFFFFFF0F
:1021E000FFFFFFFFFFFFF800FD34FFFFFFFFFFFFD2
:1021F000FFFFFFFFFFFFFFFFFFFFFFFFFFFFFFFFEF
:10220000FFFFFFFFFFFFFFFFFFFFFFFFFFFFFFFFDE
:10221000FA08FF9EFFFFFFFFFFFFFFFFFFFFFFFF2B
:10222000FFFFFFFFFFFFFFFFFFFFFFFFFFFFF800C4
:10223000FFFFFFFFFFFFFD34FFFFFFFFFF9EFFFFDC
:10224000FFFFFFFFFFFFFFFFFFFFFFFFFFFFFFFF9E
:10225000FFFFFFFFFFFFFFFFFFFFFFFFFFFFFFFF8E
:10226000FFFFFFFFFFFFFFFFFFFFFFFFFFFFFFFF7E
:10227000FFFFFFFFFFFFFFFFFFFFFFFFFFFFFFFF6E
:10228000FFFFFFFFFFFFFFFFFFFFFFFFFFFFFFFF5E
:10229000FFFFFFFFFFFFFFFFFFFFFFFFFFFFF80054
:1022A000FFFFFFFFFFFFFA08FFFFFFFFFC71F800D1
:1022B000FEDBFFFFFFFFFFFFFFFFFFFFFFFFFFFF53
:1022C000F945FFFFFFFFFFFFFFFFFFFFFFFFF9459E
:1022D000FFFFFFFFFFFFFFFFFFFFFFFFFFFFFFFF0E
:1022E000FFFFFFFFFFFFF800FD34FFFFFFFFFFFFD1
:1022F000FFFFFFFFFFFFFFFFFFFFFF9EFFFFFFFF4F
:10230000FFFFFFFFFFFFFFFFFFFFFFFFFFFFFFFFDD
:10231000FA08FFFFFFFFFFFFFFFFFFFFFFFFFFFFC9
:10232000FFFFFFFFFFFFFFFFFFFFFFFFFFFFF800C3
:10233000FFFFFFFFFFFFFA08FC71FA08F800FC71CD
:10234000FFFFFFFFFFFFFFFFFFFFFFFFFFFFFFFF9D
:10235000FFFFFFFFFFFFFFFFFFFFFFFFFFFFFFFF8D
:10236000FFFFFFFFFFFFFFFFFFFFFFFFFFFFFFFF7D
:10237000FFFFFFFFFFFFFFFFFFFFFFFFFFFFFFFF6D
:10238000FFFFFFFFFFFFFFFFFFFFFFFFFFFFFFFF5D
:10239000FFFFFFFFFFFFFFFFFFFFFFFFFFFFF80053
:1023A000FFFFFFFFFFFFFA08FD34FACBFE18FFFF27
:1023B000FFFFFD34FFFFFFFFFFFFFFFFFFFFFE18E2
:1023C000FB8EFFFFFF9EFC71FFFFFFFFFFFFFFFF84
:1023D000FFFFFF9EFD34FF9EFFFFFFFFFFFFFFFF9C
:1023E000FFFFFFFFFFFFF800FD34FFFFFEDBFB8E6A
:1023F000FA08FA08F800FA08F800F861FE18FFFF7A
:10240000FFFFFFFFFFFFFFFFFFFFFFFFFFFFFFFFDC
:10241000FA08FA08F861FA08F861FA08FFFFFFFF06
:10242000FFFFFFFFFFFFFFFFFFFFFFFFFFFFF800C2
:10243000FFFFFFFFFFFFF945FD34FE18FA08FFFF1D
:10244000FFFFFFFFFFFFFFFFFFFFFFFFFFFFFFFF9C
:10245000FFFFFFFFFFFFFFFFFFFFFFFFFFFFFFFF8C
:10246000FFFFFFFFFFFFFFFFFFFFFFFFFFFFFFFF7C
:10247000FFFFFFFFFFFFFFFFFFFFFFFFFFFFFFFF6C
:10248000FFFFFFFFFFFFFFFFFFFFFFFFFFFFFFFF5C
:10249000FFFFFFFFFFFFFFFFFFFFFFFFFFFFF80052
:1024A000FD34F800FF9EF800FEDBFFFFFFFFFFFF9B
:1024B000FFFFFA08FFFFFFFFFFFFFFFFFFFFF8002E
:1024C000FFFFFFFFFA08F861FEDBFD34FB8EF8002A
:1024D000F800F800F800FC71FFFFFFFFFFFFFFFFAF
:1024E000FFFFFFFFFFFFF800FD34FE18FEDBFD34A9
:1024F000FEDBFFFFF800FFFFFFFFFFFFFFFFFFFF17
:10250000FFFFFFFFFFFFFFFFFFFFFFFFFFFFFFFFDB
:10251000FA08FFFFFFFFFFFFFFFFFFFFFFFFFFFFC7
:10252000FFFFFFFFFFFFFFFFFFFFFFFFFFFFF800C1
:10253000FE18FA08FF9EFA08FFFFFFFFFA08FFFFE8
:10254000FFFFFFFFFFFFFFFFFFFFFFFFFFFFFFFF9B
:10255000FFFFFFFFFFFFFFFFFFFFFFFFFFFFFFFF8B
:10256000FFFFFFFFFFFFFFFFFFFFFFFFFFFFFFFF7B
:10257000FFFFFFFFFFFFFFFFFFFFFFFFFFFFFFFF6B
:10258000FFFFFFFFFFFFFFFFFFFFFFFFFFFFFFFF5B
:10259000FFFFFFFFFFFFFFFFFA08F861F945F800B2
:1025A000FD34FEDBFFFFF945FFFFFFFFFFFFFFFFED
:1025B000FFFFFA08FFFFFFFFFFFFFF9EF945FB8EBD
:1025C000FD34FC71FA08FC71FA08FB8EFD34FF9EA5
:1025D000FA08FC71FFFFFFFFFFFFFFFFFFFFFFFF98
:1025E000FACBF861F861F800F861FA08FEDBFFFF4A
:1025F000FFFFFFFFF800FFFFFFFFFFFFFFFFFFFFF1
:10260000FFFFFFFFFFFFFFFFFFFFFFFFFFFFFFFFDA
:10261000FA08FFFFFFFFFFFFFFFFFFFFFFFFFFFFC6
:10262000FFFFFFFFFFFFFFFFFB8EF800F800F80041
:10263000FACBFD34FEDBFA08FFFFFFFFFA08FFFFCD
:10264000FFFFFFFFFFFFFFFFFFFFFFFFFFFFFFFF9A
:10265000FFFFFFFFFFFFFFFFFFFFFFFFFFFFFFFF8A
:10266000FFFFFFFFFFFFFFFFFFFFFFFFFFFFFFFF7A
:10267000FFFFFFFFFFFFFFFFFFFFFFFFFFFFFFFF6A
:10268000FFFFFFFFFFFFFFFFFFFFFFFFFFFFFFFD5C
:10269000DFD3CFF0C7EFB7CCAFECA7AAA7CBF00042
:1026A000A7CA9FC9A7CAE800F800F000F000F00030
:1026B000F000F800BCA3A7CAA7CA9FCAE020D26056
:1026C000BCC3F800A7CAA7CAD260B584A7CAA7CA64
:1026D000D1C0AE46A7EAA7CAA7CAA7CAA7EAA7CA8F
:1026E000A708A7CAA7CAF000BCA3A7AAA7CAA7CAD7
:1026F000A7AAA7CAF800A7CAA7CAA7CAA7CAA7CAEB
:10270000A7CAA7AAA7CAA7CAA7CAA7CAA7CAA7AA81
:10271000D1A0A7CAA7CABCA3D9C0D1A0E800E8002D
:10272000B647A7CAA7AAA7CAA7CAA7CACB40F80094
:10273000A7CAAFECBFEDE1C0C7CEDFF3F9C3FFFA24
:10274000FFFFFFFFFFFFFFFFFFFFFFFFFFFFFFFF99
:10275000FFFFFFFFFFFFFFFFFFFFFFFFFFFFFFFF89
:10276000FFFFFFFFFFFFFFFFFFFFFFFFFFFFFFFF79
:10277000FFFFFFFFFFFFFFFFFFFFFFFFFFFFFFFF69
:10278000FFFFFFFFFFFFFFFDFFFBE7F7CFF2A7CB48
:102790009FCAB7CDC7F1C7F1CFF3D7F4D7F5F8008B
:1027A000EB87EAA4D753D7F6DF53E4EBE50CE50C4F
:1027B000DDAED7F5DFF6DFF5D7F5DFF6DFF6D7F6D6
:1027C000F120DF73D7F6D7F5DF53EAA4DFF6DF5346
:1027D000F800D7F5DFF6DFF6D7F5DFF6DFF6D7F648
:1027E000D7F6D7F6D7F6F800EB67F1E2E5CED7F6E5
:1027F000DFF6D7F6F800DFF6D7F6D7F5DFF6D7F62F
:10280000D7F6D7F6EAA4F1E2F860F1E2F1E2F0409F
:10281000F800F1E2F1E2F1E2E50CE4ECE50CED2C7C
:10282000DE90D7F6DFF6DFF6D7F6D7F6F860F800D9
:10283000F100D68FC7F1F000B7EE9FC9D1A0B7CE97
:10284000DFF4FFFAFFDBFFFEFFFFFFFFFFFFFFFFED
:10285000FFFFFFFFFFFFFFFFFFFFFFFFFFFFFFFF88
:10286000FFFFFFFFFFFFFFFFFFFFFFFFFFFFFFFF78
:10287000FFFFFFFFFFFFFFFFFFFFFFFFFFFFFFFF68
:10288000FFFFFFFFFFFCCFF297C8A7CCCFF3E7F81D
:10289000F7FBF7FCF7FCF7FCFFFDFF9AF9E5F80002
:1028A000FED6FFFCFDF3FF79FE14FD31FD10FC6E3A
:1028B000F800FF99FFFCF7FCFFFCF7FCF7FCFAC8F7
:1028C000FE14F7FBFD30FC6DFFFCFAC8FD31FB8BFD
:1028D000F922FFFCFFFCF7FCF7FCFFFCFFFCFFFC10
:1028E000F7FCFFFCFD31F800FA05F7FCFFFCFFFCEC
:1028F000FFFCF7FCF800FFFCFFFCF7FCFFFCFFFC13
:10290000FFFCFFFCF7FCF7FCFFFCFFFCFFFCFFFCFF
:10291000F9E5FDF3FF99FFFCFFFCFFFCFFFCF7FC72
:10292000FFFDF7FCFFFCFFFCFFFCFD30FB8AF8001D
:10293000FED7F800FFFDFA05F7FCEFFAF9E3CFF355
:10294000A7AB9F88CFF1F7B8FFFDFFFFFFFFFFFFA9
:10295000FFFFFFFFFFFFFFFFFFFFFFFFFFFFFFFF87
:10296000FFFFFFFFFFFFFFFFFFFFFFFFFFFFFFFF77
:10297000FFFFFFFFFFFFFFFFFFFFFFFFFFFFFFFF67
:10298000FFFFEFF89FA9AFCCDFF7EFFBF7FCFFFDF0
:10299000FFFFFFFEFFFCFFFDFB8CF800FB8DF80046
:1029A000FFFFFFFFFD33F800F800F800FA06FA0514
:1029B000F800FF79FFFEFFFFFFFFFFFFFC4FF8006D
:1029C000F923FA06FAC9FEB8FFFDFF9AFA06F923C1
:1029D000FED7FFFDF7FCFFFDF7FCF7FCF7FCF7FC6B
:1029E000FDF3F922F922F800F510F7FCF7FBF7FBED
:1029F000F7FBF7FCF800EFFBF7FBF7FBF7FBF7FB48
:102A0000F7FBEFFBF7FBF7FBF7FBF7FBF7FBF7FB3E
:102A1000F9E5F7FBFC4DFD10F7FBF7FBF7FBF7FBC8
:102A2000F7FBF7FBF7FBF7FBFF79F800F799F800E6
:102A3000F7FCFC4DFED6FAC8F7FBF7FCFA05F7FBEE
:102A4000EFFAD7F6AFCD97A9F797FFDBFFFFFFFFB0
:102A5000FFFFFFFFFFFFFFFFFFFFFFFFFFFFFFFF86
:102A6000FFFFFFFFFFFFFFFFFFFFFFFFFFFFFFFF76
:102A7000FFFFFFFFFFFFFFFFFFFFFFFFFFFFFFFC69
:102A8000DFD38F87C7F2F7FBFFFBFFFEFFFFFFFFE0
:102A9000FFFFFFFFFFFDFB8AF9E5FFFFFFFFF800E7
:102AA000FFFFFFFFFD33FA07FFFEF7FCF7FBF7FB25
:102AB000F800FFFFFFFFFFFEFFFEFFFEFAC9FB8CE1
:102AC000FF9AFFFDFFFDFFFDFF9AFFFDFC4EF86042
:102AD000F7FCF7FCF7FCF7FCF7FBF7FBF7FBF5D28D
:102AE000F922F5F3EFFBF800FD10F7FBEFFBEFFB2E
:102AF000F7FBF7FBF800F7FBEFFBEFFBF7FBF7FB50
:102B0000EFFBEFFBF7FBEFFBEFFBF7FBEFFBEFFB65
:102B1000F9E5F7FBEFFBFC4DF800FB6AEFFBF7FB79
:102B2000EFFAEFFAF7FBEFFAF9E5F6B5F7FBF80085
:102B3000F7FBF7FBFC4DF510F7FCF7FBF9E5F7FBAE
:102B4000EFFBF7FCE7F9CFF38FA7DFD3FFDAFFFF47
:102B5000FFFFFFFFFFFFFFFFFFFFFFFFFFFFFFFF85
:102B6000FFFFFFFFFFFFFFFFFFFFFFFFFFFFFFFF75
:102B7000FFFFFFFFFFFFFFFFFFFFFFFFF7DBC79038
:102B80008F66D7F4EFFAFFFDFFFFFFFFFFFFFFFFA8
:102B9000FFFFFFFFFFFDEFFAF7FCFFFFFFFFF8006D
:102BA000FFFFFFFFFD32F860F4EFF510FA05FC4F70
:102BB000F800FFFEFFFEFFFEFFFDFFFDFFFDFFFD36
:102BC000FFFDF7FCFD10F9E5F696F759F860F800FF
:102BD000F7FBEFFAEFFAEFFAEFFAEFFAEFFAE7FAAC
:102BE000EFFAEFFAEFFAF800F50FE7F9EFFAEFFA7C
:102BF000E7F9EFFAF800E7FAE7F9EFFAEFFAE7FAA0
:102C0000EFFAEFFAE7F9EFFAEFFAEFFAEFFAEFFA85
:102C1000F9E4EFFAEFFAEFFAEE94F800EFFAEFFAD0
:102C2000E7FAEFFAEFFAEE74F42CEFFAEFFAF800A5
:102C3000EFFAEFFAF921EFFBEFFAEFFAF9E4EFFA26
:102C4000EFFAF510F510E7F9CFF48786C78FEF9903
:102C5000FFFFFFFFFFFFFFFFFFFFFFFFFFFFFFFF84
:102C6000FFFFFFFFFFFFFFFFFFFFFFFFFFFFFFFF74
:102C7000FFFFFFFFFFFFFFFFFFFFFFFCDFB37763F7
:102C8000CFF4EFFAFFFEFFFFFFFFFFFFFFFEFFFFA6
:102C9000FFFFFFFFFFFDEFF9E7F9FFFFFFFFF80080
:102CA000FFFFF7FCECEEF800FC4CFD31FD32FAC9F9
:102CB000F800FFFDFFFDFFFDF7FCF7FCF7FCF779DF
:102CC000F9E5F9E5F6B5EFFAEFFAF800F50FF4EFEC
:102CD000F800E7F9E7F9E7F9E7F9E7F9E7F8E7F8DE
:102CE000E7F8E7F8E7F8F800ECEDE7F8E7F8E7F8D9
:102CF000E7F8E7F8F800E7F8E7F8E7F8E7F8E7F9C2
:102D0000E7F9E7F8E7F8E7F8E7F8E7F8E7F8E7F8CA
:102D1000F1E3E7F8E7F8E7F8E7F8EDD1E7F8E7F8E7
:102D2000E7F9E7F8E7F8ECEEE7F9E7F9E7F9F80093
:102D3000E7F9EE94F921EFFAE7FAEFFAF9E4EFFA9E
:102D4000EFFAF50FF50FE7FAEFFACFF37743D7D1A4
:102D5000FFFCFFFFFFFFFFFFFFFFFFFFFFFFFFFF86
:102D6000FFFFFFFFFFFFFFFFFFFFFFFFFFFFFFFF73
:102D7000FFFFFFFFFFFFFFFFFFFFE7F56740BFF02B
:102D8000EFFAFFFEFFFFFFFEFFFEFFFFFFFFFFFF6B
:102D9000FFFFFFFEFFFEE7F9E5D0FAC9FFFEF800EE
:102DA000E7F9DFF7ECCDF9E5FFFEFFFEFFFDFD11D2
:102DB000FD10F7FBF7FBF7FBEFFBF6B5F800F800AB
:102DC000EE94EFFAE7F9E7F9F9E3ECEEE7F8E7F864
:102DD000F2A5ECEDDFF7DFF7DFF7DFF7DFF7DFF77F
:102DE000D7F7F1C3DFF7F800E4ECDFF7D7F7EB47ED
:102DF000EC2ADFF7F800DFF7DFF7D7F6DFF6DFF7CB
:102E0000D7F6D7F6DFF7DFF6DFF6DFF7DFF6DFF628
:102E1000F1C2DFF6DFF6DFF6DFF7DFF6DFF6DFF72A
:102E2000DFF6D7F6DFF7DFF6D7F7DFF7DFF7F800E3
:102E3000DFF7F800EDD0DFF8E7F8E7F9F9C4EFFACB
:102E4000EFF9F50FF44CEFF9E7F9E7F8B7F0674160
:102E5000E794FFFDFFFFFFFFFFFFFFFFFFFFFFFF07
:102E6000FFFFFFFFFFFFFFFFFFFFFFFFFFFFFFFF72
:102E7000FFFFFFFFFFFFFFFFFFFB6F428F88E7F6BB
:102E8000FFFDFFFFFFFFFFFFFFFFFFFFFFFEFFFF55
:102E9000FFFFFFFEFFFEE7F7D7F6F5F2F840F80078
:102EA000D7F6DFF8FD30F800F9E5F9E5F800F800AD
:102EB000F510EFFBEFFAEFFAEFFAE756F348E7F811
:102EC000E7F8DFF7E672F840E58FDFD6DFF6DFF6EA
:102ED000D733F800E409D7D5D7D5D7D5D7D5CFD4B0
:102EE000D7F5D732F0E0F800DE71CFD4CFF5D7F5C3
:102EF000E346EA64F800D7F4CFD4D7F5D7F5D7D5B1
:102F0000D7F5D7F5D7D5CFD4D7F5D7F5D7D5D7D5EA
:102F1000F040D7D5D7D5D7F5D7D5CFD4D7F5D7D596
:102F2000CFD4D7F5D7F5CFD4D7D5D7F5E4CBF800A4
:102F3000E4ECE409D7F6DFF6DFF6E7F7F42BF80068
:102F4000F1E3F800F921E7F8E7F9E7F8DFF787861A
:102F50006F41F7D7FFFFFFFFFFFFFFFFFFFFFFFFFF
:102F6000FFFFFFFFFFFFFFFFFFFFFFFFFFFFFFFF71
:102F7000FFFFFFFFFFFFFFFDBF6E5F00D7F4F7FB12
:102F8000FFFDFFFEFFFFFFFEFFFEFFFEFFFEFFFE59
:102F9000FFFDFFFDFFFEE7F9CFF5CFB4E4AAF8008F
:102FA000EFFAFFFDF5D3FC4DF7FBF7FBF7FBF4EF72
:102FB000EDB1EFF9E7F8E7F9E7F8DFF7DFF7DFF76B
:102FC000DFD6E409EA84D7F5CFD4D7D5D7D5CFD487
:102FD000CFD4F0E0F800F800E325CFB3C7B3CFD3E8
:102FE000CFD3CFB3D56CF800CFB3CFB3CFD3CFB35C
:102FF000C7B3E9A1F800C7B3CFB3CFD3CFB3C7B33B
:10300000CFD3CFB3C7B3CFD3CFD3C7B3CFB3CFD340
:10301000E8E0C7B3CFD3CFB3C7B3CFD3CFB3C7B332
:10302000CFB3CFD3CFD3CFB3CFD3CFB3CEF1F8007D
:10303000DCCACFD4D7D4D7F5D7D5D7F6DFF6DFF7AC
:10304000E7F7DFF9DFF9E7F8E7F8E7F7DFF6CFF4BE
:103050004EE0A78BFFFCFFFFFFFFFFFFFFFFFFFF1F
:10306000FFFFFFFFFFFFFFFFFFFFFFFFFFFFFFFF70
:10307000FFFFFFFFFFFFF7DA56E08768E7F8FFFE84
:10308000FFFEFFFEFFFEFFFDFFFEFFFEFFFEFFFE59
:10309000FFFDFFFDFFFDE7F9BFB2C7B1D7D5EF5880
:1030A000F7FBF7FCF7FBEF78EFFAEFFAEFF9EF56E3
:1030B000E7F8E7F7DFF7DFF7D7D6D7D6D7D5CFD5FD
:1030C000D62FDD6DCFB4CF93CFB3CFB3C792C79216
:1030D000C7B2C792C792C792C792BF71C792C79132
:1030E000BF91BF91C791C60DC791C7B2C791BF70BD
:1030F000C792C792D488C772BFB1BF91BFB1BF9208
:10310000C792C791C791C791BF71BF92BF92BF923B
:10311000C6CFBF92BF92BF71C791C7B2BF71C791EF
:10312000C7B2C792C791C7B2C791C791C791CE2EF8
:10313000C792C7B2CFD3C7B3CFD4CFF5D7F5D7F5A2
:10314000DFF6DFF7DFF7DFF7E7F7DFF6DFF6DFF6CB
:103150008F474EC0EF97FFFFFFFFFFFFFFFFFFFF0F
:10316000FFFFFFFFFFFFFFFFFFFFFFFFFFFFFFFF6F
:10317000FFFFFFFFFFFFAF6C46C0B7AFF7FAFFFDE1
:10318000FFFEFFFEFFFEFFFDFFFEFFFDFFFDFFFD5B
:10319000FFFDFFFDE7F8BF71BFB1CF72EFFAEFFBA4
:1031A000EFFBEFFAEFF9EFFAEFF9E7F9E7F8E7F8F5
:1031B000DFD7D7D6DFD6D7B5CFB4CFB4CF94C793A8
:1031C000C793C792C772C792C7B2BF51B770BF91BA
:1031D000B770B74FB74FAF2F9F0D96CC96EC86AA1E
:1031E0007E897E89764876487E687E687E69868993
:1031F0008ECA8EAB96ECA74EAF2FB74FB790B77075
:10320000B750BF70BF70BF50B770BF90B770B750A6
:10321000BF90BF70B750BF90BF91B74FBF71BF9104
:10322000B750BF71BF71BF50B770BF90BF70B7705C
:10323000BF91BF91BF91BF92C7B2C7B3CFD3D7D50C
:10324000D7F5D7F5D7F5DFF7DFF5DFF6DFF6CFF502
:10325000B7CE3EC09F2AFFFDFFFFFFFFFFFFFFFF2E
:10326000FFFFFFFFFFFFFFFFFFFFFFFFFFFFFFFF6E
:10327000FFFFFFFFFFDA56C056C0CFF4FFFDFFFD92
:10328000FFFDFFFDFFFDFFFDFFFDFFFDFFFCFFFC60
:10329000F7FCD7D5BF70BF91CF93B74ED7F6EFFAF3
:1032A000EFF9E7F9E7F9E7F9DFD8DFF7DFD7D7B5C7
:1032B000CFD5CFF5CFB3C7B3CFB3C792BF71C79246
:1032C000C791B750BF71BF71AF2EAF2EAF4F9F0DDB
:1032D00096CB868A6E47458125000CA004200420E9
:1032E000042003E004000400042003E00420046040
:1032F000042004801D002D6055E4766786AA96CBD5
:10330000A70DAF4EAF2FAF4FB76FAF2EB74EB76F02
:10331000AF4FAF2EBF50B750AF2FB74FB76FAF2ED5
:10332000AF4FB770B72FB72FB76FB74FAF4FB7705B
:10333000BF70B74FB770C791BF70BF91C7B2CFD33F
:10334000C7D3CFF4D7F5D7F5D7F6DFF5D7F4D7F451
:10335000C7F256A056C0FFFAFFFFFFFFFFFFFFFFB7
:10336000FFFFFFFFFFFFFFFFFFFFFFFFFFFFFFFF6D
:10337000FFFFFFFFCF52364066C1EFF9FFFDFFFDB3
:10338000FFFDFFFDFFFDFFFCFFFDFFFCFFFBF7FB6B
:10339000CFD4B74FBF71E7F9D7D5B74ECFB3E7F961
:1033A000E7F9E7F8DFD7DFF7DFD6DFD6D7B5CFB558
:1033B000CFB5C793C772C793BF71BF71BF71BF71DC
:1033C000AF2FB72FB76F9EEC96CB8EAA766735409E
:1033D0000CC004200360038003C00320038003E0CB
:1033E0000360036003C003800340038003A0034025
:1033F000036003E00340036003C0040004402D4069
:1034000055E376478EAA9F0D9F0CAF2EB74FA72E80
:10341000A72EB74FAF4EA72EAF2EB74EAF0DA72E8C
:10342000B72FAF2EA72EAF2EAF2EAF0EAF4FB74F89
:10343000A72EB72FBF70AF2EB74FBF91BF91BF91CF
:10344000CFB3CFD3C7D3CFD3DFF5CFF4CFF4CFF4FF
:10345000CFD366C12E40D732FFFFFFFFFFFFFFFF34
:10346000FFFFFFFFFFFFFFFFFFFFFFFFFFFFFFFF6C
:10347000FFFFFFFF9F0936607F05EFFAFFFCFFFCAF
:10348000F7FDF7FCFFFDFFFDF7FCF7FBF7FAC7B30D
:10349000B74FBF92EFF9E7F9E7F9B76FA70EDFD89B
:1034A000E7F8DFD6DFD6DFD6DFD5D7B5CFB5CFB4D7
:1034B000BF51BF71C7B2B770B770B750B770A72D03
:1034C000A72D9F0D868976463DA103E0034003A00A
:1034D0000360034003600300022001A001A001007B
:1034E00000E0012000C000E000C001000100012058
:1034F0000140016001A002A002E0032003A00380BC
:1035000003600440250055E36E4796EB9ECCA6EC85
:10351000AF2EA70DA70CAF0DAF2D9F2DA70DAF4E52
:10352000A70EA6EDAF2EA74DA6EDAF0DAF2EA70DA2
:10353000AF2EAF4EA70DAF2EB76FB74FB74FC79196
:10354000C791C7B2CFD3D7F4CFF3CFF3CFF4C7F33C
:10355000C7B276E436609F2AFFFFFFFFFFFFFFFF41
:10356000FFFFFFFFFFFFFFFFFFFFFFFFFFFFFFFF6B
:10357000FFFFFFFF6681466076C4D7D5F7FCFFFCEE
:10358000F7FCFFFCF7FCF7FCF7FCF7FBBFB1AF2E35
:10359000BF92EFFAE7F9E7F8E7F9B771A70DD7B5EA
:1035A000D7F6D7F5D7B5D7D6CFB5CFB5CFB5BF728C
:1035B000BF71BF91B750AF30B750B74F9F0C96CB8C
:1035C000868955E3046003C003200320038002E0E2
:1035D00001E00160010000E0010001200120014044
:1035E0000160016001800180C7E0B7E096C096E00D
:1035F00086605D80348002E001400100018002208D
:1036000003000360032003800C603D4066258EAA02
:1036100096CC9F0CA70EA70D9F0C9F0CA72D9F0C5F
:10362000A6ECAF2DA70D9F0CA70DA72D9EECA72DE7
:10363000AF2DA6EC9F0DAF4EAF0DAF0DB74FB76FCF
:10364000B770BF70CFB2C7D2C7D2CFF3C7D3C7B19D
:10365000CFB16EA3364066A1FFFFFFFFFFFFFFFF64
:10366000FFFFFFFFFFFFFFFFFFFFFFFFFFFFFFFF6A
:10367000FFFFFFFF46604E406682BFD1E7F8F7FCD0
:10368000FFFBF7FBEFFBF7FBEFFAC791AF4FBF92E2
:10369000EFF9E7F8E7F9E7F8DFB7C793AF2EBF71A7
:1036A000CFD5D7D5D7B4CF95CFB4CFB4C793BF724A
:1036B000B790AF4FAF0FAF6FA72E8EC9868955C396
:1036C000040003200380030002E00220012000C068
:1036D00001000120016001A001A001C001C001E0C2
:1036E0000200020002000260A7E0A7E0AFE0AFE046
:1036F000AFE0BFE0BFE0C7E0C7E096E04D000320C9
:1037000001200140022003600300032004602D20FB
:103710005E0586899EEB96EB9ECCA70D9EEC96EB04
:10372000AF2DA70C96EBA70DA70C9F0C9EECA70D39
:103730009EEC9EECA72DA70D9F0DAF2EAF2EAF4E8A
:10374000B76FBF90BF91BFB1CFD2C7B2BFD1C7B221
:10375000C7B15E614E604640FFFFFFFFFFFFFFFF06
:10376000FFFFFFFFFFFFFFFFFFFFFFFFFFFFFFFF69
:10377000FFFFFFFF26004E206682BFB0BFB1EFFA09
:10378000FFFBF7FBF7FBEFFAC7B2B74EBF70E7F8E6
:10379000E7F8E7F8DFF7E7F8DFD6DFD6A70DA70EE3
:1037A000CFD5CF95CFB4CF94CF94CF73C772B77125
:1037B000AF2EAF2EAF2F9EEB8669660504800320E7
:1037C000032003600280016000C00100014001800D
:1037D00001A001E00200022002200240026002601B
:1037E00002800260028003209FE09FE0A7E0A7E044
:1037F000A7E09FE09FE0A7E0A7E0AFE0BFE0C7E061
:10380000B7C05D8002C000E0016003000300032038
:1038100004403D80662686A99EEB96EB9ECBA70CC6
:103820009F0B96CAA70C9F0C96EB9F0C9F2C96EBB8
:1038300096EBA72C9EEC9EEBA70D9F0DA70DAF2D31
:10384000B74EB74EB790C7B1BF90BF90C7B1BFB129
:10385000BF8F5E614E202600FFFFFFFFFFFFFFFFCF
:10386000FFFFFFFFFFFFFFFFFFFFFFFFFFFFFFFF68
:10387000FFFFFFFF15E04E206E62BF8FBFB1CFB3D9
:10388000EFFAF7FBF7FBCFB3B76EBF6FE7F7DFF7E2
:10389000DFF7DFF6DFB7D7B5DFF6CFB5B74FAF2D20
:1038A000C793C793C7B3C793BF73BF72BF93B771B3
:1038B000A72EA6ED8EAA6E652520036003000300E7
:1038C0000280014000C00120016001A001E002006F
:1038D000022002600260028002A002C002E002E058
:1038E000030002E002E003E09FE0A7E09FE09FE02A
:1038F0009FE09FE0A7E09FE09FE09FE09FE0A7E0C0
:10390000AFE0B7E0BFE09F401BE000E0016002E0F5
:1039100003400360046055C2766686C99F2B9EEB08
:1039200096EB9F2B9F0B96EA9F0B9EEB96EB970BCC
:103930009F0B9EEB9EEB9F2CA70C96EBA72CAF2D1D
:10394000A72DAF4EB78FB78FBF8FC7B1BFB0B76FBF
:10395000B78F5E6146001DE0FFFFFFFFFFFFFFFF27
:10396000FFFFFFFFFFFFFFFFFFFFFFFFFFFFFFFF67
:10397000FFFFFFFF0DC04E207E85C7D2BFB0BF8FB7
:10398000D7D4EFFAD7D5AF6EB76EDFF6DFF8DFF733
:10399000DFD7DFB6D7D5D7B5CFD4C794C792A70D99
:1039A000AF30C792C772BF92BF51C792BF71AF4FBE
:1039B0009ECB86884DC203C00360030002E00180F5
:1039C00000E00100018001C001E00220026002A0CD
:1039D00002A002E002E00300030003200320032012
:1039E0000340032003400C2097E09FE09FE09FE00E
:1039F0009FE09FE09FE09FE09FE09FE09FE09FE0CF
:103A00009FE09FE0A7E0AFE0BFE09700032000E069
:103A100001A00300036003C02CE0664586A88EAABF
:103A20009EEB9EEB96CA9EEA96EB96EA96EA9EEB92
:103A30009EEB96EB9EEB9EEB96EAA70BA70B9F0CDB
:103A4000A72CAF4EAF4EB74EBF90BF90B78EBFAF53
:103A5000B76F5600460015C0FFFFFFFFFFFFFFFFD7
:103A6000FFFFFFFFFFFFFFFFFFFFFFFFFFFFFFFF66
:103A7000FFFFFFFF0DC045E076A4F7F9BFB0B7AF79
:103A8000BF8FD7D5B76FAF6ECFD4E7F7DFD7D7D615
:103A9000DFB6CFB5CFD5CFB3C7B4C793C7B4A70DE3
:103AA000A70EC773BF72BF71BF72BF71AF4F9EEBDE
:103AB0007E86250003400360030001E00120010031
:103AC000016001C002200240028002A002C002E0A8
:103AD00003200320034003400340036003400360CE
:103AE0000380038003601C809FE09FE09FE09FE0D5
:103AF0009FE09FE09FE09FE09FE09FE09FE09FE0CE
:103B00009FE097E09FE09FE0A7E0AFE0B7E07E8016
:103B1000028000E002200320038004A04DE27E87A3
:103B20008EC98EE996EB9EEA8EEA96CA9EEA96EBDD
:103B30008ECA9EEA96EA8EEA970B9F0B970B9F0B15
:103B4000A72CA72DAF2DB76EB76FB76FB78FB76E16
:103B5000AF6D560045E00DA0FFFFFFFFFFFFFFFF29
:103B6000FFFFFFFFFFFFFFFFFFFFFFFFFFFFFFFF65
:103B7000FFFFFFFF0DA045C076A5EFF9E7F6BFB048
:103B8000B76FAF8EAF4ECFB3DFF7DFD6DFD6D7D567
:103B9000CFB5CFB5D7B4C7B4C793C793C772B75122
:103BA000A72DAF2FBF71BF71B770A70D8EA96E255E
:103BB00004400340034002C001400120016001A015
:103BC00002000240028002A002E003000320034042
:103BD000034003600360036003600380038003808D
:103BE00003A0038003601C809FE09FE09FE09FE0B4
:103BF00097E097E097E097E09FE09FE097E097E0FD
:103C00009FE09FE097E09FE09FE09FE0A7E0AFE0AC
:103C1000BFE065A001E001600300030004204D81C6
:103C2000764586A996EA96CA8EEA96EA96EA86C903
:103C30008EEA96EA8EC996EA9F0B96CA96EAA70B79
:103C40009F0BA70CAF2DAF4DA74DB76EB76EA76DED
:103C5000AF4D56003DC00D80FFFFFFFFFFFFFFFF90
:103C6000FFFFFFFFFFFFFFFFFFFFFFFFFFFFFFFF64
:103C7000FFFFFFFF0DA04DE06E83E7F9E7F8DFF5EA
:103C8000AF6EAF6EB74ED7F6E7D7D7D5CFD5CFD477
:103C9000D7B4CFB4C792C773C792BF72BF71BF9278
:103CA000A70DAF2EB771AF4F96EA86A85E2303A08B
:103CB00003200360022000C00120018001C0022017
:103CC000028002C002E002E00320032003600360E0
:103CD00003600380038003800380038003800380EC
:103CE00003A0038003801CC097E097E097C087A0E3
:103CF000774077406F006F207F6087A08FE09FE064
:103D000097E097E09FE09FE097E097E097E097E0EB
:103D1000A7E0B7E0A7E013C000E00280034003A0E3
:103D200035207645868886C996EA8EE98EE996EA38
:103D300096EA8EC996C99ECA8EC996EA96EA96EA0E
:103D40009EEAA70CA72CA72CAF6DB74EAF4DA76D61
:103D5000AF4D4DC03DC00D80FFFFFFFFFFFFFFFFD8
:103D6000FFFFFFFFFFFFFFFFFFFFFFFFFFFFFFFF63
:103D7000FFFFFFFF0DC03DC06E43E7F7E7F8D7F642
:103D8000B74EB76EA74DB72FDFD5CFF5CFB3D7B4AA
:103D9000C792C791C792C792B771BF71BFB1B750F1
:103DA000AF2FA72DA70C8EC97EA655E20340032096
:103DB000036001A000C0014001800200026002A077
:103DC00002E00320032003400360036003800380BC
:103DD00003800380038003800380038003A00380AB
:103DE0000380038003801CA087A077605EA046202C
:103DF0002DA025802DA025802DC0466067007F6006
:103E000097E097E097E097E08FE097E097E097E002
:103E100097E09FE0A7E0B7E05DA0012001E003008C
:103E200003E024E0662486A88EC88EA896E996E969
:103E30008EC896C99F0A8EC98EA99F0A96EA8EC916
:103E40009F0B9F0B9F0BA72CAF4DA74CAF4DAF4DBA
:103E50009F4B45C045C00DA0FFFFFFFFFFFFFFFFC9
:103E6000FFFFFFFFFFFFFFFFFFFFFFFFFFFFFFFF62
:103E7000FFFFFFFF0DA03DC06E63DFF7DFF6B78FDA
:103E8000B76FB74EA72CB76EB74FCFB3CFB4C7B38A
:103E9000C772C791C792B770B750C791AF50B750AC
:103EA000B74F8EA986C886874DC1032003400360A3
:103EB000014000E0018001E00220026002C0030036
:103EC00003200340036003600380038003800380BA
:103ED000038003A0038003800380038003A003808A
:103EE00003800380038014404E802DC025A004A0D1
:103EF00002E0018000C0010001C003201D404E808F
:103F000077408FC097E097E097E097E097E097E0E1
:103F100097E097E097E0A7E0AFE086E001A001E03E
:103F200003000380250066237E8796E996E986A82C
:103F30008EC996E986A886C89F0A86A98EC99F0A57
:103F400096EA96CA9F0BAF4C9F2CAF2CAF6DA72C57
:103F50009F2B4E003DC00580FFFFFFFFFFFFFFFFCF
:103F6000FFFFFFFFFFFFFFFFFFFFFFFFFFFFFFFF61
:103F7000FFFFFFFF0DA045E06E82DFF5CFB3B76D09
:103F8000AF6DD7F4CFB29F2C9F2BBF6FC792BF727C
:103F9000C791BF71B770B750BF71AF30AF50B76F37
:103FA0009ECA86877EA74DE00320032003400120A0
:103FB00000E0016001E0024002A002C003000340F3
:103FC0000360036003600380038003800380038039
:103FD00003800380038003800380038003A00380A9
:103FE00003A00380038003E02580042002200080DA
:103FF000006000A0008000800060006000A003203E
:10400000468077408FC097E097E097E08FE08FE0A1
:104010008FE097E097E097E09FE0AFE097400200E5
:104020000160038003601D0066237EC786A88EC8DA
:1040300096E886C886C896E98EA88EC896E996E95D
:104040008EA99F0AA72B9EEA9F2CAF4CA72C9F2BD3
:10405000A72B4DC035A00D80FFFFFFFFFFFFFFFF27
:10406000FFFFFFFFFFFFFFFFFFFFFFFFFFFFFFFF60
:10407000FFFFFFFF0DA03DC05E42DFD4B76FAF6D05
:10408000BFB1DFD6CFD4B76FAF4D9F0CAF2EBF708F
:10409000BF90B750B750B770AF4FAF4EAF2D96C966
:1040A00086C786A755E20340034003200120010094
:1040B000018001E00240028002C00300034003606F
:1040C00003800380038003800380038003800380D8
:1040D00003800380038003800380038003800380C8
:1040E00003800380038003A003600260012000803E
:1040F000008000A00100012001200140012000E01B
:1041000002604E807F608FC097E097C08FE097E09D
:104110009FC08FE08FE097E097C09FE09FE097807F
:1041200002800160030003C025205E237E8696E89E
:104130007EA686A796E98EA786A796C88EC886C84B
:1041400097099EE996EA9F0AAF2C9F2B9F0BAF4CD5
:104150009F2B45A03DC00580FFFFFFFFFFFFFFFF36
:10416000FFFFFFFFFFFFFFFFFFFFFFFFFFFFFFFF5F
:10417000FFFFFFFF0DA03DC06641C7D0A74BAF6D4D
:10418000DFD4D7F4CFD3D7B4AF4E9F0C9F2CAF4E14
:10419000B74FB74FB750AF2FAF4EA72B96EA86C891
:1041A00086C75E0203C003600320014000E0018077
:1041B00001E0026002A003000320034003600380CB
:1041C0000380038003800380038003A003A0038097
:1041D000038003800380038003800380038003A0A7
:1041E000038003800380038003600280012000C0FD
:1041F000012001A00200026002A002A002600200F1
:10420000016003606700878097E08FE08FE097E0B0
:104210008FE08FE097E097C08FE097E097C0A7E02E
:104220009760024001C00320038035406E447E86C3
:1042300086A78EE886A7868696E886C786A78EC854
:1042400096E88EC996E9A70B9F0AA6EAAF4C9F2B6A
:104250009F0A4DE03DC00580FFFFFFFFFFFFFFFF0E
:10426000FFFFFFFFFFFFFFFFFFFFFFFFFFFFFFFF5E
:10427000FFFFFFFF05A03DC06640A74CA74BC7B09E
:10428000D7F4D7B4D7D4C792BF91B74EA70B9EEB44
:10429000A72DB770AF2FAF2EA70B96E97EA686C7C6
:1042A0006E430420036003400140010001800200CE
:1042B000026002C0030003200360036003800380E8
:1042C00003800380038003800380038003800380D6
:1042D00003800380038003800380038003800380C6
:1042E0000380038003800380038002E0020001E07A
:1042F000026002E003400360038003800340032068
:1043000002A002002D807F608FC08FC08FC08FC041
:104310008FC08FC08FC08FC08FC08FC08FC097E0FD
:104320009FE0872001A001A0032004003DA06E446F
:1043300086C786A77E878EE786A786A786E78EC86C
:1043400086C88EC89F0A96E99EEAA74BA72A9F298E
:10435000A72A45C035A00580FFFFFFFFFFFFFFFF35
:10436000FFFFFFFFFFFFFFFFFFFFFFFFFFFFFFFF5D
:10437000FFFFFFFF05803DC04E009F0AAF4CC7D333
:10438000CFD3D7D3C7B2BF92BF91B790AF4EA70BD1
:104390009F2CA70DAF2E9F0A96E97EA686C776654D
:1043A00014A00340032001E00100016001E002408D
:1043B00002A002E003000360036003800380038027
:1043C00003800380038003800380038003800380D5
:1043D00003800380038003800380038003800380C5
:1043E000038003800380038003A003600320032075
:1043F00003600380038003800380038003800380C5
:10440000038003000380774087A08FC08FC08FC0D8
:104410008FC08FC08FC08FC08FE08FC08FC08FC004
:1044200097E09FE06EC00160022003000420560167
:1044300076447EA68EE786A67EA68EA786C786C70A
:104440008EC896C896E996E9A72A9F2A9F0A9F2AAE
:104450009F0A45C03DA00580FFFFFFFFFFFFFFFF54
:10446000FFFFFFFFFFFFFFFFFFFFFFFFFFFFFFFF5C
:10447000FFFFFFFF05803DA04DE09F49B76ECFB421
:10448000CFF3CFD3C791C791BF90B750B76FAF4DA0
:104490009F0B9F0B96EA8EE77EA686C676653D60EB
:1044A00003400360022000E0016001E0024002A03E
:1044B0000300032003600360038003800380038004
:1044C00003800380038003800380038003800380D4
:1044D00003800380038003800380038003800380C4
:1044E00003800380038003800380038003800380B4
:1044F00003A003800380038003A00380038003A044
:104500000380038003006700878087A08FC087A097
:1045100087A087A08FC087A087C08FC087C087C0B3
:104520008FA09FC097C055C000C002C003800CA0E0
:1045300056027E8586A77E8686C786A786A686C7FC
:104540008EC88EC78EC89F099EEA97099F2A9F2A08
:1045500097094DC03DA00580FFFFFFFFFFFFFFFF54
:10456000FFFFFFFFFFFFFFFFFFFFFFFFFFFFFFFF5B
:10457000FFFFFFFF05803DC056009F29BFAFD7D387
:10458000C7D3BF92C7B1C791B74FB76FB76FAF4E21
:10459000A72D96E986A686867EC57E855DE003A06A
:1045A000038002C000E0014001C0022002A002E03E
:1045B00003200340038003600380038003800380A3
:1045C00003800380038003800380038003800380D3
:1045D00003800380038003800380038003800380C3
:1045E0000380038003800380038003A003A003A053
:1045F000038003800380038003800380038003A083
:104600000380038003804600878087A08FC087A037
:1046100087A087A087A087A087A087A087A087C042
:104620008FC08FA097C097E01C2000E003000360BC
:1046300035606644766486A686C67E8586A686C76D
:1046400086A786C796E8970896C99F29A70A97095B
:1046500097094DC035A00D80FFFFFFFFFFFFFFFF53
:10466000FFFFFFFFFFFFFFFFFFFFFFFFFFFFFFFF5A
:10467000FFFFFFFF058045E045E09F4ABFB0C7B0A0
:10468000C7B1C7B2BFB1B770B76FB74FAF2EAF4E9C
:10469000A70C8EC8766586A67EA666430C8003406E
:1046A00003000140012001800200028002E003209B
:1046B0000340036003800380038003800380038042
:1046C00003800380038003800380038003800380D2
:1046D00003800380038003800380038003800380C2
:1046E000038003800380038003A003800380038092
:1046F0000380038003A003A003A003A00380038022
:10470000038003A0038045C087A087A087A087A05F
:1047100087A087A087A087A087A087A087A087A061
:1047200087A087A087A08FA08FA0022001A00340B0
:10473000044045806E6486C67E657EA686C67EA6DB
:1047400086A68EC796C88EC79709A7299709970985
:1047500097093DA035A00D60FFFFFFFFFFFFFFFFA2
:10476000FFFFFFFFFFFFFFFFFFFFFFFFFFFFFFFF59
:10477000FFFFFFFF05A03DC045E0AF4BBFAFBF8EC1
:10478000BF8EBF90BFAFBF50B76FAF4EAF0EAF4E33
:104790008EC886A67EA67EC56E443D8003C00320DB
:1047A000024000E0016001E0026002C0030003403B
:1047B00003800380038003800380038003800380E1
:1047C00003800380038003800380038003800380D1
:1047D00003800380038003800380038003800380C1
:1047E0000380038003800380038003A00380038091
:1047F0000380038003A003A0038003800380038061
:10480000038003A003804DC08FC087A087A087A02E
:1048100087A087A087A087A087C087A087A087A040
:1048200087C087A087A08FC097C066C000E002A0A5
:10483000030014C05E4276437EA586A67E857E86F2
:1048400086C786C786C796E8970996E89F099F2975
:1048500086E645A03DA00560FFFFFFFFFFFFFFFFCD
:10486000FFFFFFFFFFFFFFFFFFFFFFFFFFFFFFFF58
:10487000FFFFFFFF05803DA04DC0A74AB78EB78E52
:10488000B78DAF4DAF2CBF8EAF4EAF2DAF6E96C96B
:104890007E8586C57EA576635E220440030002E025
:1048A0000100014001C0024002A002E00340036099
:1048B00003800380038003A00380038003800380C0
:1048C00003800380038003800380038003800380D0
:1048D00003800380038003800380038003800380C0
:1048E00003800380038003800380038003800380B0
:1048F00003A003800380038003A003A0038003A020
:104900000380038003A05E208FA0878087A087A0FC
:1049100087A087A087A087A07FA07FC07F8087A077
:104920007F8087A087A0878087C08FC00BE000C0F2
:1049300002E004002D606E4286C67E847E8586C6B7
:1049400086A686A68EC796E896E896E89F299708D9
:10495000768345C035A00580FFFFFFFFFFFFFFFF07
:10496000FFFFFFFFFFFFFFFFFFFFFFFFFFFFFFFF57
:10497000FFFFFFFF058045E04DE08F08B78DB76D65
:10498000AF6CAF4CAF6C970A9EEAAF4E9F0B7E8523
:1049900086C67EA5766376633D800340032001E0F2
:1049A000010001800220028002E003200360036016
:1049B000038003A003A0038003800380038003809F
:1049C00003800380038003A00380038003800380AF
:1049D00003800380038003800380038003800380BF
:1049E0000380038003800380038003A0038003808F
:1049F00003A0038003A003A003A00380038003801F
:104A000003A003A003607F4087A087A087A087A0A2
:104A10007FA087A07F807FA087A087A07F8087A0BE
:104A20007F807FA07F8087A087A08F807F8001000C
:104A30000200030004A0662176437EA486C57EA5FD
:104A40007E8586C696C786C78EE7A72A97088EE713
:104A50006E6245C035A00560FFFFFFFFFFFFFFFF4F
:104A6000FFFFFFFFFFFFFFFFFFFFFFFFFFFFFFFF56
:104A7000FFFFFFFF05803DC045E07EA5AF4CA76B63
:104A8000A74BB74C9F2997089F098EC786A68EA66D
:104A90007E84764376846E4203E00300032000C0E8
:104AA000016001E0026002C0032003400360038054
:104AB00003800380038003A00380038003800380BE
:104AC00003800380038003800380038003800380CE
:104AD00003800380038003800380038003A003A07E
:104AE0000380038003A003800380038003A003806E
:104AF000038003A00380038003A00380038003805E
:104B000003800360144097A07F807F807F807F8038
:104B10007F807F807F807F807F807F807F807F809D
:104B20007F807F807F807F807F80878087A0352007
:104B3000006002E004002D40662286C57E857685F1
:104B400086A686C67EA68EC79F298F0796E79F08F2
:104B50004DC03DA03DC00580FFFFFFFFFFFFFFFFF1
:104B6000FFFFFFFFFFFFFFFFFFFFFFFFFFFFFFFF55
:104B7000FFFFFFFF0580358056006E638EC7AF4B89
:104B8000AF6C9F299F09A72986E786A586C67EC5A3
:104B90006E63768376832D40036003A001C001001D
:104BA00001A0022002800300034003600380038011
:104BB00003800380038003800380038003800380DD
:104BC00003800380038003800380038003800380CD
:104BD0000380038003800380038003A003A003A05D
:104BE0000380038003A00380038003A0038003A04D
:104BF0000380038003A0038003800380038003807D
:104C000003A003A066608FC07F807F807F807F804D
:104C10007F807F807F807F807F807F807F807F809C
:104C20007F807F807F807F807FA07F8087807F6084
:104C30000180020003000C805E01766376637EA52E
:104C400086C57EA586A69EE78EC796E79F296E62DB
:104C500045A04DC035A00580FFFFFFFFFFFFFFFF10
:104C6000FFFFFFFFFFFFFFFFFFFFFFFFFFFFFFFF54
:104C7000FFFFFFFF058045E04DE066617662A74AD1
:104C80009F2A9F49A72A8F0886C686C67EA5768456
:104C900076837EA466200420038002E000E00160A9
:104CA00001E0026002E00320034003600380038010
:104CB00003800380038003800380038003800380DC
:104CC00003800380038003800380038003800380CC
:104CD00003800380038003800380038003A003809C
:104CE000038003A00380038003A00360038003808C
:104CF00003A003A003800380038003A003A003801C
:104D000003A024A097A087607F807F807F807F8022
:104D10007F807F807F807F807F807F807F807F809B
:104D20007F807F807F807F8077807F807F807FA073
:104D300024E0002002E004403D8066227E847E84E0
:104D4000766486A58EE686C68EC79EE886C645A092
:104D50004DE045C02DA00D60FFFFFFFFFFFFFFFFEF
:104D6000FFFFFFFFFFFFFFFFFFFFFFFFFFFFFFFF53
:104D7000FFFFFFFF05803DC045C066616E8176A3E1
:104D80009F29A74A970886C696C786C67684766303
:104D90007E836E6245A003E0034001C001000180F4
:104DA000022002A00300032003600380038003802D
:104DB00003800380038003800380038003800380DB
:104DC00003800380038003800380038003800380CB
:104DD00003800380038003800380038003800380BB
:104DE000038003A0038003A003A003A003C00380EB
:104DF00003800380038003A003800380038003807B
:104E00001440974087A0776077607760776077601D
:104E100077607760776077607760776077607760DA
:104E20007760776077607760776077A07F807F803A
:104E3000774000C00200036015205E207E83766408
:104E40007E8586A57EA586E5970886E656005600EF
:104E50004DC03DA035C00D80FFFFFFFFFFFFFFFFEE
:104E6000FFFFFFFFFFFFFFFFFFFFFFFFFFFFFFFF52
:104E7000FFFFFFFF05803DC04DA05E405E616660A4
:104E80007EC497088F0796E786C67E857E8476A3C4
:104E9000766266411CE003A003000100014001C0EE
:104EA000026002C00320034003600380038003808C
:104EB00003800380038003800380038003800380DA
:104EC00003800380038003800380038003800380CA
:104ED00003800380038003800380038003800380BA
:104EE00003800380038003E076603CE003A003A01E
:104EF000038003A0038003800380038003A02CC0F1
:104F00009780878077606F60778077807780778001
:104F100077807780778077807780778077807780D9
:104F200077807780778077807760776077807F6021
:104F3000778003C0004002E004804DC06642768462
:104F40007EA57E857EA58EC786C65E0056004DC0B6
:104F50003DC045A03DC00560FFFFFFFFFFFFFFFF15
:104F6000FFFFFFFFFFFFFFFFFFFFFFFFFFFFFFFF51
:104F7000FFFFFFFF05803DC04DE056005E416641EA
:104F80005E405E4197078EE67EA586A57E846E8391
:104F9000766266210400034002E000E00180022006
:104FA00002800300032003600380038003800380EA
:104FB00003800380038003800380038003800380D9
:104FC00003800380038003800380038003800380C9
:104FD00003800380038003800380038003800380B9
:104FE0000380038003A00C6097C09FC09FA0664011
:104FF000248003800380038003A02CC07EC097A080
:10500000878077606F807780776077607760776080
:1050100077607760776077607760776077607760D8
:10502000776077607760776077606F606F607760D8
:105030006F804E60000002C003E02D4066217E8438
:1050400076637EA486C57E854DA055E0560045C09A
:105050004DC045A035A00580FFFFFFFFFFFFFFFF0C
:10506000FFFFFFFFFFFFFFFFFFFFFFFFFFFFFFFF50
:10507000FFFFFFFF05A03DC03DE0560066406640D3
:105080005E205E205E0066217EC47EA47663766329
:1050900076633D6003A003A001A0012001A00240AF
:1050A00002C0030003400360038003800380038089
:1050B00003800380038003800380038003800380D8
:1050C00003800380038003800380038003800380C8
:1050D0000380038003800380038003A00380038098
:1050E00003800380038014806F4077607F6097A007
:1050F000A7A0A7A097209F60A7A09FC087807F60E0
:105100006F606F6077606F406F606F606F606F603F
:105110006F606F606F606F606F606F606F606F6017
:105120006F606F606F606F606F606F606F4077601F
:105130006F6067200160014003401D205E2176639F
:1051400076837EC466003D6055C055E045A04DC0E5
:105150004DE045A035800580FFFFFFFFFFFFFFFF0B
:10516000FFFFFFFFFFFFFFFFFFFFFFFFFFFFFFFF4F
:10517000FFFFFFFF05803DC045C04E005E2056404A
:105180005E416E0145A04DC04D804DA05E006E4257
:10519000666214C003E0038000E0016001E0028069
:1051A00002E0032003600380038003A003800380E8
:1051B00003800380038003800380038003800380D7
:1051C00003800380038003800380038003800380C7
:1051D00003800380038003800380038003A0038097
:1051E00003800380038014806F406F406F606F40C6
:1051F0006F606F60776077606F406F406F406F6087
:105200006F406F406F4077406F406F406F406F401E
:105210006F406F406F406F406F406F406F406F4016
:105220006F406F406F406F406F406F6077406F40DE
:105230006F406F400420000003000CC03560560032
:1052400055C03D6035404DA055C04DA04DE04DE0EE
:1052500045C045803DC00580FFFFFFFFFFFFFFFF0A
:10526000FFFFFFFFFFFFFFFFFFFFFFFFFFFFFFFF4E
:10527000FFFFFFFF05A03DA045E04E005620664021
:1052800066404DE055C055E035402D2035402500A5
:1052900014C0044003E002C000C0016002000280AC
:1052A00003000320036003600380038003A003A0C6
:1052B00003800380038003800380038003800380D6
:1052C000038003A0038003800380038003800380A6
:1052D00003800380038003800380038003A0038096
:1052E0000380038003800C606F406F406F406F400D
:1052F0006F406F406F406F406F406F406F406F4036
:105300006F406F406F406F406F406F406F406F4025
:105310006F406F406F406F406F406F406F406F4015
:105320006F406F406F406F406F406F406F606F40E5
:105330006F60672046400000028003800440250023
:1053400035402D203D604DA045604DC05E004DA014
:1053500045C045C035A00D80FFFFFFFFFFFFFFFFE9
:10536000FFFFFFFFFFFFFFFFFFFFFFFFFFFFFFFF4D
:10537000FFFFFFFF058045E045A045E05600664081
:105380005620560066003D6035603D602D0024E0EB
:105390001CC0042003800200010001A0022002C002
:1053A000032003600360038003800380038003A065
:1053B000038003A003A003800380038003A003A055
:1053C000038003A003A00380038003800380038085
:1053D00003800380038003800380038003A0038095
:1053E0000380038003800C4067206F406F406F4054
:1053F0006F406F406F406F406F406F406F406F4035
:105400006F406F406F406F406F406F406F406F4024
:105410006F406F406F406F406F406F406F406F4014
:105420006F406F406F406F4067406F406F40672034
:105430006F40672056C000A00140036004401CC0BC
:105440002500354045803D4045A05E0045C045C033
:105450004DE045A035A00560FFFFFFFFFFFFFFFF08
:10546000FFFFFFFFFFFFFFFFFFFFFFFFFFFFFFFF4C
:10547000FFFFFFFF05803DC03DC04E005E404E0077
:1054800056206640458045604DA02D2024E02D200B
:105490000C8003E003800160012001E0028002C073
:1054A00002E003802CA086A0A760CFE0CFE0A76039
:1054B0007EA01C40036003A003A003A00380038020
:1054C00003A0038003A003A0038003800380038064
:1054D00003800380038003800380038003A0038094
:1054E0000380038003800C406720672067206720CB
:1054F0006720672067206720672067206720672074
:105500006720672067206720672067206720672063
:105510006720672067206720672067206720672053
:105520006720672067206720674067206720674003
:10553000672067205F0002600020036004200C6089
:1055400035403D60352045805DE045A04DC05DE0C3
:1055500045C03DA03DC00D60FFFFFFFFFFFFFFFF07
:10556000FFFFFFFFFFFFFFFFFFFFFFFFFFFFFFFF4B
:10557000FFFFFFFF05803DA04DE04E0046005E208E
:1055800066604DE04DA056003D402CE035602500A2
:105590000440040003A000E001600200026002E099
:1055A000038086A0BFE0AFE0A7E0A7E0A7E0AFE000
:1055B000BFE0BFE06620038003A0038003A0038058
:1055C00003A003A003800380038003800380038083
:1055D00003800380038003800380038003800380B3
:1055E0000380038003800C405F20672067206720D2
:1055F0006720672067206720672067206720672073
:105600006720672067206720672067206720672062
:105610006720672067206720672067206720672052
:105620006720672067206720672067206720674022
:10563000674067205F0003E0000002A003E014C0A1
:1056400035202D003D604DC045804DA05E004DC011
:1056500045A045C03DC00D80FFFFFFFFFFFFFFFFDE
:10566000FFFFFFFFFFFFFFFFFFFFFFFFFFFFFFFF4A
:10567000FFFFFFFF05A045E045C04600562066201D
:1056800056004E0066003D80352045602D2014C038
:105690000C800400030000E00180020002C003202F
:1056A0009720B7E0A7E09FE09FE0A7E0A7E09FE09A
:1056B0009FE0AFE0AFE0666003A003A0038003803B
:1056C000038003A0038003A0038003800380038082
:1056D00003800380038003800380038003800380B2
:1056E00003800380038004205F0067206720672019
:1056F0006720672067206720672067206720672072
:105700006720672067206720672067206720672061
:105710006720672067206720672067206720672051
:1057200067206720672067205F2067205F205F2059
:10573000672067205F00256000000220042014A07D
:1057400024C03D404D803D60458066004DC045A071
:105750004DE04DC035800580FFFFFFFFFFFFFFFFDD
:10576000FFFFFFFFFFFFFFFFFFFFFFFFFFFFFFFF49
:10577000FFFFFFFF05803DC03DC04DE05E2056208D
:10578000560066404DA03D604DA02D4024E024E031
:10579000046003C002C000E001A0022002A06E402D
:1057A000B7E0A7E0A7E09FE09FE09FE0A7E097E0D9
:1057B0009FE0A7E0A7E0A7E03540036003800380F7
:1057C00003800380038003800380038003800380C1
:1057D000038003800380038003800380038003A091
:1057E00003800380038004005F005F205F205F2050
:1057F0005F205F205F205F205F205F205F205F20B1
:105800005F205F205F205F205F205F205F205F20A0
:105810005F205F205F205F205F205F205F205F2090
:105820005F205F205F205F205F205F205F205F2080
:105830005F205F20570036200000020003C00440B4
:105840002D203D6035203D805DE045C045A055E000
:105850004DC03DA03DC00580FFFFFFFFFFFFFFFFE4
:10586000FFFFFFFFFFFFFFFFFFFFFFFFFFFFFFFF48
:10587000FFFFFFFF05803DA045C04E004E005E20AB
:105880006620560045A055C03D602D002D4014C037
:10589000044003C0024000E0018002400380AFE00A
:1058A000A7E09FE097E09FE09FE09FE09FE097E008
:1058B0009FE097E09FE09FE0772003200360038054
:1058C00003800380038003800380038003800380C0
:1058D00003800380038003800380038003800380B0
:1058E00003800380038003E056E05F005F205F20B9
:1058F0005F005F205F205F005F005F005F005F0070
:105900005F005F005F005F005F005F005F005F009F
:105910005F005F005F005F005F005F005F005F008F
:105920005F005F005F005F005F005F005F205F005F
:105930005F205F0056E03E600000014003400C80A5
:105940002D202D203D604DA0458045A05E004DC01E
:105950003DC045C03DC00D60FFFFFFFFFFFFFFFFE3
:10596000FFFFFFFFFFFFFFFFFFFFFFFFFFFFFFFF47
:10597000FFFFFFFF05A03DC045C04DE056005E2083
:1059800056204DE05DE045A035203D60352014C037
:10599000046003C001C0010001C0024055C0A7E07F
:1059A00097E097E097E097E097E09FE097E097E037
:1059B00097E09FE097E08FE07F6003800300036043
:1059C00003A003800380038003800380038003809F
:1059D00003800380038003800380038003800380AF
:1059E000038003A0038003A056E05F005F205F00F8
:1059F0005F005F005F205F005F005F005F005F008F
:105A00005F005F005F005F005F005F005F005F009E
:105A10005F005F005F005F005F005F005F005F008E
:105A20005F005F005F005F005F005F005F005F007E
:105A30005F005F0056E03E6000C0008003800CA065
:105A40001CC0356045604580458055E04DE045C04F
:105A50004DC045C035800580FFFFFFFFFFFFFFFF02
:105A6000FFFFFFFFFFFFFFFFFFFFFFFFFFFFFFFF46
:105A7000FFFFFFFF05A045E03DC04DE0562056204A
:105A800056005E0055E03D603D803560250014E025
:105A9000046003A001A0012001C002406EE09FE06D
:105AA00097E097E097E097E097E097E097E097E03E
:105AB00097E097E097E08FC0774003E00200032073
:105AC0000380038003A0038003800380038003A07E
:105AD00003A003A003800380038003A0038003A02E
